:10000000AFC100000C94CE110C94F9110C94241281
:100010000C944F120C947A120C94A5120C94D012DA
:100020000C94FB12CEC10000CCC10000CAC100007C
:10003000C8C100000C94611AC4C10000C2C1000014
:10004000C0C10000BEC10000BCC10000BAC10000B8
:10005000B8C10000B6C10000B4C100000C94261362
:10006000B0C100000C94F8160C942E17AAC1000021
:10007000A8C10000A6C10000A4C10000A2C10000E8
:10008000A0C100009EC100009CC100009AC10000F8
:100090000C9484170C94BA1794C1000092C100000C
:1000A00090C100008EC100008CC100008AC1000018
:1000B00088C1000086C1000084C1000082C1000028
:1000C00080C100007EC100000C94E41A0C9410184A
:1000D0000C94461876C100000C949C180C94D2180D
:1000E00070C100007C148114861490149A141315A6
:1000F000A414AC14B414BE14C814D214E114EB1438
:100100001315F514FF14091537153A1529152D1572
:10011000331571153E15421548154C1550155615D9
:100120005A155E157115641568156C15ED22AB2412
:1001300015251825EF232224AC22CD229022F2246B
:10014000E124EE241825182518257B2200000A0B2F
:1001500002090C0D0E080703040100000000000056
:10016000000000000000000000000000000000008F
:10017000000000000000000012111000000000004C
:10018000000000000000000000000000000000006F
:10019000000001021020200808102040102040809C
:1001A000020102010804020101020408102040803B
:1001B00080402010080402018004020180402010C9
:1001C0000804020108040201010204081020408012
:1001D00001020408102040800505050507050808F0
:1001E0000808020202020A0A0808040404040101C1
:1001F00001010101010103030303030303030407D6
:1002000007070C0C0C0C0C0C0C0C0202020206066C
:100210000606060606060B0B0B0B0B0B0B0B000062
:100220002200250028002B002E003100340002019E
:100230000000050108010B01000021002400270037
:100240002A002D00300033000101000004010701E5
:100250000A0102001D3A2774694E53E8F5D2CF9C7B
:1002600081A6BBCDD0F7EAB9A4839E25381F0251E1
:100270004C6B76879ABDA0F3EEC9D46F7255481BBC
:1002800006213C4A57706D3E230419A2BF9885D6BB
:10029000CBECF1130E2934677A5D40FBE6C1DC8FAD
:1002A00092B5A8DEC3E4F9AAB7908D362B0C1142A3
:1002B0005F78659489AEB3E0FDDAC77C61465B0880
:1002C00015322F5944637E2D30170AB1AC8B96C579
:1002D000D8FFE2263B1C01524F6875CED3F4E9BA31
:1002E000A7809DEBF6D1CC9F82A5B8031E39247759
:1002F0006A4D50A1BC9B86D5C8EFF24954736E3D40
:1003000020071A6C71564B1805223F8499BEA3F042
:10031000EDCAD735280F12415C7B66DDC0E7FAA92C
:10032000B4938EF8E5C2DF8C91B6AB100D2A37641A
:10033000795E43B2AF8895C6DBFCE15A47607D2EFB
:100340003314097F6245580B16312C978AADB0E300
:10035000FED9C400C9115717E3176F18FB186719A6
:1003600011241FBECFEFD1E2DEBFCDBF00E00CBF36
:1003700013E0A0E0B2E0E6E2F5E500E00BBF02C06A
:1003800007900D92A436B107D9F727E0A4E6B3E0B1
:1003900001C01D92A730B207E1F711E0C0EBD1E038
:1003A00000E006C021970109802FFE010E94152957
:1003B000CA3AD10780E00807A9F70E94A0260C944A
:1003C000912A1ECE8F929F92AF92BF92CF92DF92D0
:1003D000EF92FF9224ED36E04FEF56E066E672E0D2
:1003E00082E692E00E945B1124ED36E04FEF56E08A
:1003F00066E672E082E692E00E949C1181E090E065
:100400000E9471104091EE065091EF066091F00647
:100410007091F10680E090E00E946D108090FA06E5
:100420009090FB06A090FC06B090FD0620E030E026
:1004300040E85FEBC501B4010E949227882331F1A7
:10044000C090EE06D090EF06E090F006F090F10636
:10045000A7019601C501B4010E942D274B015C0143
:1004600020E030E040E054E3C701B6010E947D285F
:100470009B01AC01C501B4010E947928181634F023
:1004800080E892E09093D9068093D8068091FE068A
:10049000882331F080E892E09093D9068093D806C3
:1004A0008091F2069091F306A091F406B091F506C2
:1004B000BC01CD016F5F7F4F8F4F9F4F6093F2065E
:1004C0007093F3068093F4069093F5060E94C72775
:1004D0002091F6063091F7064091F8065091F90602
:1004E0000E947D286093EE067093EF068093F006DD
:1004F0009093F106FF90EF90DF90CF90BF90AF9078
:100500009F908F900895CF93DF93E8EDF6E087E218
:10051000DF011D928A95E9F780E090E0A0E8BFEB4B
:1005200082A393A3A4A3B5A38DEC9CECACE4BEE39F
:10053000868F978FA0A3B1A383E39DEDA0E3BDE3D6
:1005400084839583A683B7838BE592E6ACEDB6E60C
:1005500080879187A287B38784E096EBACEEBEEEEE
:1005600084879587A687B7878EE793E5A1E5B2E4F0
:10057000808B918BA28BB38BAAE7B3E0B383A2836A
:1005800088E793E011969C938E9380E093E090939C
:100590007903809378038CEE96E015969C938E9366
:1005A00014978CED96E013969C938E9312978EEE93
:1005B00096E017969C938E9316971092FF061092D2
:1005C000000710920107109202071092D4061092B1
:1005D000D5061092D6061092D706A4E6B3E084E1C1
:1005E000ED0119928A95E9F7B58BA48B8EE090E026
:1005F00011969C938E9386E492E013969C938E932F
:1006000012978AE292E015969C938E93149786E156
:1006100092E017969C938E9316978AE092E0199633
:100620009C938E931897DF91CF9108950895EF9240
:10063000FF920F931F93CF93DF93DC01EA01F9013F
:1006400014968D919C91159712960D911C9113976C
:10065000080F191F2881398118964D915C911997BF
:100660004217530728F04D915C911197452B39F1B2
:100670007801E21AF30A18964D915C911997481B7C
:10068000590B4E0D5F1D4617570794F1A901460FF0
:10069000571F40175107E0F0F182E0823383228335
:1006A0006E197F0975836483161617061CF4382F9C
:1006B000292F02C030E020E03683278313C018962C
:1006C0008D919C911997821B930B8617970784F045
:1006D000718360833383228315821482178216828A
:1006E00088819981680F791F7983688380E001C0D0
:1006F00081E0DF91CF911F910F91FF90EF900895CE
:10070000CF92DF92EF92FF92CF93DF936B017C0148
:1007100084E48C9DE0018D9DD00D1124CA57DC4FDF
:100720008AA99BA9009721F00E94E0291BAA1AAA76
:1007300084E48C9DF0018D9DF00D1124EA57FC4F4F
:1007400086A997A9009711F00E94E02984E48C9D66
:10075000F0018D9DF00D1124EA57FC4F138A128A87
:10076000168A178A108E118E128E138E148E158E85
:10077000168E178E10A211A281E090E093A382A39F
:1007800015A214A216A217A210A611A613A612A6AD
:1007900015A614A616A617A610AA11AA13AA12AA7D
:1007A00015AA14AA17AA16AA11AE10AE12AE13AE4D
:1007B00014AE15AEDF01DE961D921D921D921C92A5
:1007C0001397EE5BFF4F11821082DF91CF91FF9064
:1007D000EF90DF90CF9008950F931F93CF93DF9307
:1007E000EB01DC018D919C91FC01A681B781E88130
:1007F000F98123E0EE0FFF1F2A95E1F712962D9164
:100800003C911397E20FF31F00811181AC85BD85E8
:100810009D01220F331FDC0112968D919C9113973D
:10082000D901A80FB91F8D919C9124813581232B6B
:1008300019F461E070E002C062E070E0689F90012E
:10084000699F300D789F300D112488859985289FE8
:10085000B001299F700D389F700D1124EC81FD812E
:100860002E9FC0012F9F900D3E9F900D1124800F51
:10087000911FFA019183808373836283DF91CF910B
:100880001F910F9108952F923F924F925F926F9216
:100890007F928F929F92AF92BF92CF92DF92EF9210
:1008A000FF920F931F93CF93DF9300D000D0CDB76B
:1008B000DEB7DC011496ED91FC9115970190F08163
:1008C000E02D808591859A838983A281B381BC8341
:1008D000AB83FB0181909190A190B1908F01C12CCD
:1008E000D12C7601C814D904EA04FB040CF05FC0D3
:1008F000D80114964D905D906D907C901797189646
:100900004D915D916D917C911B97F8017096FE83DE
:10091000ED83F801A081B18183E0AA0FBB1F8A9506
:10092000E1F7E981FA8182819381A80FB91F2D90A7
:100930003C901197F80124853585220F331F8B8158
:100940009C81280F391FF9010081118114968D9126
:100950009C911597892B19F481E090E002C082E008
:1009600090E0809F9001819F300D909F300D112469
:10097000249F8001259F100D349F100D1124249D6C
:10098000C001259D900D349D900D1124A8016D810D
:100990007E81820D931D0E94782A8D819E81080F91
:1009A000191F9FEFC91AD90AE90AF90A9BCF26969F
:1009B0000FB6F894DEBF0FBECDBFDF91CF911F9170
:1009C0000F91FF90EF90DF90CF90BF90AF909F90EE
:1009D0008F907F906F905F904F903F902F900895F1
:1009E000CF93DF93DB01A659BD4F2C91222369F0F1
:1009F00024E4269FF001279FF00D1124EA57FC4FB5
:100A0000EF0119922A95E9F71C9224E4269FF00140
:100A1000279FF00D1124EA57FC4F1482158216828D
:100A200017821186108613861286118A108A1786FD
:100A30001686DF91CF9164CE2F923F924F925F92B4
:100A40006F927F928F929F92AF92BF92CF92DF92DE
:100A5000EF92FF920F931F93CF93DF93CDB7DEB743
:100A600028970FB6F894DEBF0FBECDBF6B017C0197
:100A70001A0184E48C9D90018D9D300D11242A571C
:100A80003C4FF90184819581A681B781892B8A2BFE
:100A90008B2B09F4B8C0A12CB12C412C512C320164
:100AA00038872F83C90104969A838983D9011896C0
:100AB000BC83AB83E981FA8180819181A281B3817A
:100AC000481659066A067B0694F5AB81BC81ED9108
:100AD000FC91EA0DFB1D228133818901812C912C2F
:100AE00082149304C4F4D801ED91FC91309769F01D
:100AF000848195812D833E830E94E029F8018081C5
:100B000091810E94E0293E812D81FFEF8F1A9F0A7B
:100B10000E5F1F4FE5CFC9010E94E0298FEF481AF1
:100B2000580A680A780A94E0A90EB11CC3CFAF81B5
:100B3000B88518968D919C9119970E94E029EF81B4
:100B4000F88582859385892B59F1A12CB12C812CB4
:100B5000912C84E48C9D80018D9D100D11240057F3
:100B60001C4F8214930484F4D801ED91FC91EA0D9A
:100B7000FB1D848195810E94E029BFEF8B1A9B0A9F
:100B8000EEE0AE0EB11CEDCF84E48C9DF0018D9DA6
:100B9000F00D1124EA57FC4F828593850E94E029CD
:100BA00084E48C9D90018D9D300D112489010A579C
:100BB0001C4FD80150968D919C9151970E94E0292D
:100BC000F801868597850E94E029C701B60198DD66
:100BD000C701B60128960FB6F894DEBF0FBECDBF91
:100BE000DF91CF911F910F91FF90EF90DF90CF9009
:100BF000BF90AF909F908F907F906F905F904F903D
:100C00003F902F90EDCE28960FB6F894DEBF0FBE22
:100C1000CDBFDF91CF911F910F91FF90EF90DF90AB
:100C2000CF90BF90AF909F908F907F906F905F908C
:100C30004F903F902F90089524E4269FF001279F26
:100C4000F00D1124EA57FC4F82899389049702978B
:100C500058F485E090E0938B828B8FEF9FEFDC015F
:100C6000828F938FA48FB58F08952F923F924F92CA
:100C70005F926F927F928F929F92AF92BF92CF922C
:100C8000DF92EF92FF920F931F93CF93DF93CDB735
:100C9000DEB7E0970FB6F894DEBF0FBECDBF9AA3C4
:100CA00089A31B016A012801390184E4849D800124
:100CB000859D100D112498012A573C4F7901D901C7
:100CC0004D925D926D927C921397AB01C301B2017C
:100CD000B3DEF801E657FC4FD6014D915D916D9161
:100CE0007D918D01CA01408351836283738364E0E7
:100CF00070E00E943129F70191878087892B09F4E0
:100D00009FC11E8E1D8E198E1A8E1B8E1C8EF8A2F0
:100D1000EF8E97012C5F3F4F38A72FA32C5F3F4FDB
:100D20003AA729A7EFA1F8A580819181A281B3817B
:100D3000298D3A8D4B8D5C8D281739074A075B0743
:100D40000CF0E7C0A9A5BAA58D919C912D8D3E8D83
:100D5000280F391F3A8B298BD801ED91FC91EE0FAA
:100D6000FF1FA9A1BAA18D919C91E80FF91F808165
:100D70009181F90191838083D80114962D913D9141
:100D80004D915C9117972BA33CA34DA35EA3085FE5
:100D90001F4F62E070E0C1010E943129E989FA89A0
:100DA00093838283892B09F44BC11D8A1E8A1F8A73
:100DB000188E2D893E894F89588D8BA19CA1ADA19C
:100DC000BEA1281739074A075B070CF08FC0D8016E
:100DD000ED90FC90EE0CFF1CE989FA89C280D3806B
:100DE000CE0CDF1C68E070E081E090E00E943129C9
:100DF000D6018D939C93E989FA8982819381FC01C4
:100E0000EE0DFF1DC080D180C114D10409F418C1BA
:100E1000F80184819581A681B781F6018083918351
:100E2000A283B383085F1F4F181619061A061B0604
:100E300034F01C8A1B8A812C912C54010CC064E074
:100E400070E00E943129D60115969C938E931497D9
:100E5000892B79F7F5C0F60180819181A281B38158
:100E600088169906AA06BB06A4F5F601E480F5806B
:100E70002B893C89E20EF31EF801DE01119680E118
:100E800001900D928A95E1F7005F1F4FA701BE0107
:100E90006F5F7F4FA9A1BAA114968D919C91159770
:100EA0009BDCF60126813781D70112968D919C91AA
:100EB0001397820F931F97838683BFEF8B1A9B0A2A
:100EC000AB0ABB0A2B893C892C5F3F4F3C8B2B8B99
:100ED000C2CF2D893E894F89588D2F5F3F4F4F4F8D
:100EE0005F4F2D8B3E8B4F8B588F63CF298D3A8D63
:100EF0004B8D5C8D2F5F3F4F4F4F5F4F298F3A8F48
:100F00004B8F5C8F2D8D3E8D2C5F3F4F3E8F2D8FF5
:100F100009CF6EE070E0C1010E943129AF8DB8A108
:100F20001B969C938E931A97812C912CA12CB12CFB
:100F3000C12CD12C24E4249DC001259D900D1124A9
:100F40009C0120573C4F3A8B298B21E030E0A214C2
:100F5000B3040CF04DC0D8014D915D916D917D9120
:100F60008D01E989FA89E080F180E80CF91C77FDB0
:100F700067C0D70111963C932E9341155105610529
:100F80007105A9F0CA012FA738AB4BA75CA76DA7C5
:100F90007EA70E944B29F701958384832FA538A94A
:100FA0004BA55CA56DA57EA5892B31F449C0D70161
:100FB00015961C921E921497F701538342838481E5
:100FC000958197838683918780871386128681E037
:100FD00090E0452B462B472B11F480E090E0C80EA3
:100FE000D91EFFEFAF1ABF0A4EE0840E911CAFCF9F
:100FF00084E4849D8001859D100D11240A571C4FA7
:10100000D8011D961C921E921C97C60133E0880FD2
:10101000991F3A95E1F70E944B29F801918B808B3B
:10102000892B71F0C601880F991F0E944B29D801A6
:101030001F969C938E931E97892B11F080E005C01C
:10104000A101C301B201F8DC81E0E0960FB6F8948B
:10105000DEBF0FBECDBFDF91CF911F910F91FF90EB
:10106000EF90DF90CF90BF90AF909F908F907F9048
:101070006F905F904F903F902F9008952F923F92E6
:101080004F925F926F927F928F929F92AF92BF9298
:10109000CF92DF92EF92FF920F931F93CF93DF9344
:1010A000CDB7DEB768970FB6F894DEBF0FBECDBFE1
:1010B0009C8B8B8BDB0149015A0124E4289DC001E4
:1010C000299D900D11249C012A573C4F79012D91A7
:1010D0003C911197F701358B248BFC01E456FC4FB2
:1010E00014964D915D916D917C911797408351833A
:1010F00062837383FC01E056FC4F18964D915D911D
:101100006D917C911B974083518362837383FC01B3
:10111000EC55FC4F1C964D915D916D917C911F9704
:101120004083518362837383FC01EC54FC4F5096DF
:101130005C91509751964C91519752963C91529791
:1011400053962C91539750834183328323838D018F
:101150000C5E1F4F852F942F181619060CF068C0CF
:10116000880F991F880F991F0E944B29D701D3968A
:101170009C938E93D297892B09F4BCC0212C312CDF
:10118000412C512C32019701225D3F4F3E8B2D8B1C
:101190002C5F3F4F388F2F8B2E5F3F4F3A8B298B21
:1011A000B301A2012FEF421A520A620A720AED89B4
:1011B000FE8980819181A281B381481759076A070E
:1011C0007B074CF5AF89B88DCD90DC90C20CD31C59
:1011D000F801DE01119680E101900D928A95E1F708
:1011E000005F1F4FA601BE016F5F7F4FEB89FC8937
:1011F00084819581F1DAA989BA898D919C911197A1
:10120000F60122813381820F931F8D939C93F4E02A
:101210002F0E311CC5CFD701D4968D919C91D597B7
:101220000E944B29F70197AB86AB892B09F462C06A
:10123000F80180819181A281B38124E4289DF0018D
:10124000299DF00D1124EA57FC4FAC01BD014D7FE3
:1012500021E030E0452B462B472B11F020E030E019
:1012600033A322A324E4289DF001299DF00D11242D
:10127000EA57FC4F0197A109B10921E030E002973C
:10128000A105B10510F020E030E035A324A384E4EB
:10129000889DF001899DF00D1124CF0184559C4F4C
:1012A000D80114964D915D916D917C911797DC0159
:1012B0004D935D936D937C931397EA57FC4F868D06
:1012C000978DA0A1B1A1B7FF10C0B095A095909542
:1012D00081959F4FAF4FBF4F82AF93AFA4AFB5AFD4
:1012E000168E178E10A211A20AC012AE13AE14AE43
:1012F00015AE05C0C501B40103DA81E001C080E08C
:1013000068960FB6F894DEBF0FBECDBFDF91CF91C8
:101310001F910F91FF90EF90DF90CF90BF90AF9013
:101320009F908F907F906F905F904F903F902F9005
:101330000895CF92DF92EF92FF92CF93DF931092B6
:101340000E0424E4269FF001279FF00D1124EA5794
:10135000FC4F15A614A620E030E0C12CD12CDF01F3
:101360001A96C1E0D0E0C416D506D4F4ED91FC91F4
:101370001197E20FF31FE280F3801E141F0454F450
:10138000E480F580F782E682F186E0861386128695
:10139000D183C083EFEFCE1ADE0A225F3F4FE3CF47
:1013A00024E4269FF001279FF00D1124EA57FC4FFB
:1013B00013A612A611AE10AEDF01DE961D921D928D
:1013C0001D921C92139782E090E0938B828BDF91A9
:1013D000CF91FF90EF90DF90CF90089524E4269F67
:1013E000F001279FF00D1124EA57FC4F138A128A4F
:1013F00023CB24E4269FF001279FF00D1124EA5708
:10140000FC4F8289938981309105C8F08530910520
:1014100018F0059769F008958FEF9FEFDC01828F38
:10142000938FA48FB58F85E090E0938B828B089586
:101430008FEF9FEFDC01828F938FA48FB58F08957C
:1014400024E4249FF001259FF00D1124EA57FC4F5E
:101450002EE0AC01249FC001259F900D1124028431
:10146000F385E02DE80FF91F81E080930E0482855B
:10147000938591878087408551852681378181E0DA
:1014800090E04217530711F080E090E09183808351
:1014900008952F923F924F925F926F927F928F9218
:1014A0009F92AF92BF92CF92DF92EF92FF920F93F3
:1014B0001F93CF93DF93CDB7DEB7C255D1090FB6D7
:1014C000F894DEBF0FBECDBF21969FAF8EAF2197A0
:1014D0004BA75CA76DA77EA74801590184E4889DAE
:1014E0008001899D100D1124F801EA57FC4F2285D7
:1014F000338527963FAF2EAF27978289938902972E
:1015000009F060C186A597A5A0A9B1A9892B8A2B4E
:101510008B2B29F484E090E0938B828B53C18489D8
:10152000958921964EAD5FAD21974817590709F06F
:1015300049C186A997A99AAB89AB1EAE1DAE19AE5B
:101540001AAE1BAE1CAE8F01DF019E962996BFAF6F
:10155000AEAF2997F2962B96FFAFEEAF2B9798017F
:10156000285C3F4F2D963FAF2EAF2D97A8014A5DC7
:101570005F4F2F965FAF4EAF2F97C801829661964F
:101580009FAF8EAF61971A976396BFAFAEAF639769
:101590002996EEADFFAD299780819181A281B3811B
:1015A00029AD3AAD4BAD5CAD281739074A075B074B
:1015B0000CF0E7C02B96EEADFFAD2B9780819181AB
:1015C0002DAD3EAD280F391F3EAB2DABD901129684
:1015D0000D90BC91A02D2396BFAFAEAF2397B695CB
:1015E000A795B695A7952596BFAFAEAF25972D9633
:1015F000EEADFFAD2D9780819181892B09F496C0C6
:101600002F96AEADBFAD2F97CD90DD90ED90FC90B5
:1016100029A83AA8F9010190F081E02DF8ABEFA7D5
:1016200018AE1FAA8FA998AD2596AEADBFAD259770
:101630008A179B070CF07AC06196AEADBFAD61977B
:101640008D919C91892B69F1EFA5F8A9408051807B
:1016500062807380A7019601C301B2010E947928BC
:1016600087FD0BC0A7019601D1016D917D918D91F0
:101670009C910E94922787FD8CC0A7019601C3010F
:10168000B2010E947928181664F4A7019601F101AD
:1016900060817181828193810E949227882309F45D
:1016A00078C06396AEADBFAD63978D919C91892B49
:1016B00069F1EFA5F8A94080518062807380A7018D
:1016C0009601C301B2010E94922787FF0BC0A701B8
:1016D0009601D1016D917D918D919C910E94792807
:1016E00087FF57C0A7019601C301B2010E9492274C
:1016F00081110CC0A7019601F10160817181828185
:1017000093810E94792818160CF443C02FA938AD94
:101710002F5F3F4F38AF2FAB34E0230E311C4FA566
:1017200058A94C5F5F4F58AB4FA77CCFEDA9FEA9DE
:101730006081718123964EAD5FAD239789A99AA9E7
:101740000E94782A25968EAD9FAD2597880F991F08
:10175000880F991F29A93AA9280F391F3AAB29AB3D
:1017600089AD9AADABADBCAD0196A11DB11D89AFE0
:101770009AAFABAFBCAFADADBEAD1496BEAFADAF23
:1017800007CF81E090E0D801D9969C938E93D897AB
:1017900019C084E4889DF001899DF00D1124EA5759
:1017A000FC4F868D978DA0A1B1A1892B8A2B8B2B05
:1017B00009F064C284E090E0938B828B86AD97AD94
:1017C00093A782A784E4889DF001899DF00D1124E0
:1017D000EA57FC4F828993898230910571F482AD7A
:1017E00093ADA4ADB5AD181619061A061B060CF07C
:1017F0004CC2CC24C394D12C05C0049709F045C237
:10180000C12CD12C8EE02196EEADFFAD21978E9F9D
:1018100070018F9FF00C112427962EAD3FAD2797B6
:10182000E20EF31ED70112964D915C91139741156C
:10183000510509F42AC216968D919C9117979AA783
:1018400089A7FE01319684E1DF011D928A95E9F7AF
:10185000898A9A8AAB8ABC8AC114D10409F457C018
:1018600084E4889DF001899DF00D1124EA57FC4F16
:10187000DF01DE964D905D906D907C9082AD93ADD2
:10188000A4ADB5AD481659066A067B0609F03FC0FF
:10189000F701648175810084F185E02D8481958153
:1018A000A681B7819C018D8B9E8BAF8BB88F285FF3
:1018B0003F4F3E8B2D8BD70118968D919C91199798
:1018C000280F391F19963C932E93189718968D91CF
:1018D0009C911997460F571F841B950B97FD06C0C7
:1018E000860F971F19969C938E93189784E4889D72
:1018F000F001899DF00D1124EC53FC4FB1E04B1A1F
:1019000051086108710840825182628273829E018F
:101910002B5E3F4FAE01475D5F4F64E170E0C70152
:101920000E941703082F10E00115110509F091C15D
:101930008CE090E0A0E0B0E08D839E83AF83B88719
:101940009E01235E3F4FAE01475D5F4F64E070E054
:10195000C7010E941703082F10E00115110509F0B7
:1019600078C180E190E0A0E0B0E08D839E83AF83FA
:10197000B8874D8D5E8DBE01655D7F4F8F8D98A1BF
:101980000E94782A8BA19CA1009761F06D8D7E8DBD
:10199000EBE2F0E0EC0FFD1F6E0F7F1F49A15AA193
:1019A0000E94782A1DA21EA21FA218A621962EAD63
:1019B0003FAD2197220F331F38AF2FAB24E4289D72
:1019C000C001299D900D11248A579C4FAC014C5F9A
:1019D0005F4F5AAF49AFDC011896BEAFADAF2DA136
:1019E0003EA14FA158A529AB3AAB4BAB5CABE9ADDF
:1019F000FAAD80819181A281B381281739074A0706
:101A00005B070CF0CFC0ADADBEADED91FC9189A9E7
:101A10009AA9880F991F880F991FE80FF91FA081B5
:101A2000B1818C91882309F4AFC0833009F4ACC034
:101A30000280F381E02D2FA938ADE20FF31F408122
:101A4000518158AB4FA7452B09F49EC089859A85D3
:101A5000AB85BC850196A11DB11D89879A87AB878F
:101A6000BC879E01235E3F4FAE01475D5F4F64E040
:101A700070E0C7010E94170390E0009709F0E8C0EA
:101A80008D819E81AF81B8850496A11DB11D8D8386
:101A90009E83AF83B8874D8D5E8DBE016B5D7F4F9A
:101AA0008F8D98A10E94782A8BA19CA1009761F04C
:101AB0006D8D7E8DA5E2B0E0AC0FBD1F6A0F7B1F60
:101AC00049A15AA10E94782A1EAA1DAA412C512C74
:101AD0003201EFA5F8A980819181A281B3814816D6
:101AE00059066A067B060CF04FC0EFA5F8A92480C2
:101AF00035802DA93EA9220E331ED10112966D917B
:101B00007C9113979E01235E3F4FAE01475D5F4F6F
:101B1000C7010E94170390E0009709F099C0F101F6
:101B200082819381092E000CAA0BBB0B4D815E8133
:101B30006F817885840F951FA61FB71F8D839E83A5
:101B4000AF83B887608171814D8D5E8D8F8D98A137
:101B50000E94782A8BA19CA1009759F0D1016D9128
:101B60007C912D8D3E8D620F731F49A15AA10E9459
:101B7000782ABFEF4B1A5B0A6B0A7B0AEDA9FEA914
:101B80003496FEABEDABA5CF49A85AA86BA87CA8AC
:101B9000FFEF4F1A5F0A6F0A7F0A4DA25EA26FA283
:101BA00078A61DCF89859A85AB85BC85892B8A2B24
:101BB0008B2B09F44EC08AE190E0A0E0B0E089836D
:101BC0009A83AB83BC8321962EAD3FAD2197C9018B
:101BD000330FAA0BBB0B8D879E87AF87B88B4D89C0
:101BE0005E89BE016F5F7F4F8F89988D0E94782A32
:101BF0008B8D9C8D009761F06D897E8941E050E06E
:101C00004C0F5D1F640F751F498D5A8D0E94782AF5
:101C100089A59AA5D70117969C938E93169711962E
:101C20001C921E92CD2889F184E4889DF001899D43
:101C3000F00D1124EC53FC4F80819181A281B3817E
:101C40000196A11DB11D80839183A283B3831DC022
:101C50008C01CD28D1F4012BC1F084E4889DF001E2
:101C6000899DF00D1124EA57FC4F81E090E095A783
:101C700084A785E090E0938B828B07C083E090E09F
:101C8000938B828B81E090E09BCDCE5ADF4F0FB6D5
:101C9000F894DEBF0FBECDBFDF91CF911F910F91A2
:101CA000FF90EF90DF90CF90BF90AF909F908F907C
:101CB0007F906F905F904F903F902F900895CF92BC
:101CC000DF92EF92FF920F931F936B017C0184E4EC
:101CD0008C9DF0018D9DF00D1124EA57FC4F8289F7
:101CE0009389009709F450C00197B9F482A593A590
:101CF0009C012F5F3F4F33A722A7092E000CAA0B90
:101D0000BB0B028D138D248D358D80179107A20793
:101D1000B307D1F5C701B6010CDB84E48C9DF0015B
:101D20008D9DF00D1124EA57FC4F8289938903970A
:101D300059F582A593A59C012F5F3F4F33A722A79A
:101D4000092E000CAA0BBB0B468D578D60A171A10B
:101D500084179507A607B707BCF086AD97AD93A784
:101D600082A784E090E0938B828B82AD93ADA4AD8B
:101D7000B5AD181619061A061B0634F4EE5BFF4FB4
:101D800081E090E0918380831F910F91FF90EF900D
:101D9000DF90CF90089524E4269FF001279FF00D57
:101DA0001124EA57FC4F828993890497B1F482A5E4
:101DB00093A5019693A782A7092E000CAA0BBB0B33
:101DC00046895789608D718D84179507A607B707D7
:101DD00021F485E090E0938B828B08952F923F92BF
:101DE0004F925F926F927F928F929F92AF92BF922B
:101DF000CF92DF92EF92FF920F931F93CF93DF93D7
:101E0000CDB7DEB72E970FB6F894DEBF0FBECDBFAD
:101E100049835A836B837C834901442E552E24E4E5
:101E2000249DF001259DF00D1124EA57FC4F2288D6
:101E300033889101245031091586148622303105EA
:101E400008F0DDC0DC0111961C921E9213961C92C4
:101E50001E921297A12CB12C60E070E09F01265FCA
:101E60003F4F38872F837F013CE0E30EF11CDF01F9
:101E70005096BA87A9879F01225F3F4F3C872B87E7
:101E8000681579050CF06FC0EF81F885A081B181EC
:101E90009D012A0D3B1D3E872D87D9012D913C9137
:101EA0001197232B09F059C018960D911C91199781
:101EB0001296ED91FC911397FE83ED8316962D916A
:101EC0003C911797D7014D915C91DA01E3E0AA0F9D
:101ED000BB1FEA95E1F7E985FA85C080D180FD0155
:101EE000EC0DFD1D440F551FAB85BC85CD90DC90DE
:101EF0004C0D5D1DDA016D937C93D7014D915C9182
:101F000011974F5F5F4F4D935C9313830283AD85B1
:101F1000BE851B963C932E931A970217130748F41D
:101F2000201B310B31832083158214821782168285
:101F300014C0AD85BE851496CD90DC9015974D816B
:101F40005E814C0D5D1D401B510B518340832C194C
:101F50003D0935832483D782C6826F5F7F4FBEE001
:101F6000AB0EB11C8DCF24E4249D8001259D100D66
:101F700011240A571C4FF80124853585DC01119680
:101F80003C932E934089518913965C934E931297FC
:101F90004685578515965C934E931497232BA1F590
:101FA000B5E02B16310481F510920E04828D938DCD
:101FB000A48DB58DAE014F5F5F4F64E070E08F3F41
:101FC0009F4FAF4FBF4F59F480E290E00E947C1EBC
:101FD00069817A818B819C81A40100DA15C08FE12F
:101FE00090E00E947C1ED8019B961C921E929A97AC
:101FF00081E090E053969C938E93529705C0FC012C
:1020000011821082138212822E960FB6F894DEBFD0
:102010000FBECDBFDF91CF911F910F91FF90EF9039
:10202000DF90CF90BF90AF909F908F907F906F90F8
:102030005F904F903F902F900895EF92FF920F93F3
:102040001F93CF93DF937C018B01EA010E94FF1E57
:10205000811121C080916C0290916D02049711F161
:1020600083E090E090936D0280936C021BC0988196
:102070009111F0CF28ED38EB45E050E060E070E0E2
:10208000CB010E948921AE01B801C7010E949721AE
:10209000C8010E94622180910F0490911004892B45
:1020A00031F3D8CFDF91CF911F910F91FF90EF9037
:1020B0000895CF93DF9320916C0230916D0224300C
:1020C000310541F0EB010E949721CE01DF91CF91C4
:1020D0000C946221DF91CF9108950C94A9250C9462
:1020E0009E250C948C250C9472210C943025089517
:1020F00060E070E080E090E00C94DA1E0895AF920A
:10210000BF92CF92DF92EF92FF920F931F93CF93E4
:10211000DF931F921F92CDB7DEB75C0169017A0190
:102120008B0180E090E0C114D104E104F104F1F0EE
:10213000C114D10421E0E206F10410F4A60102C0AA
:102140004FEF5FEF9E012F5F3F4FB801C5010E9427
:102150004A268F3F2FEF920749F029813A81C21A10
:10216000D30AE108F108020F131FDDCF0F900F9083
:10217000DF91CF911F910F91FF90EF90DF90CF9063
:10218000BF90AF900895FC0184E0808387E0818355
:1021900089E0838388E082838AE084838CE085837E
:1021A00086E3868387E387830895CF93DF93EC01EB
:1021B00061E0898197D461E08B8194D460E08E8165
:1021C00091D461E08A818ED461E08C818BD460E00F
:1021D0008F8188D461E0888185D461E08881BED414
:1021E00060E08D81DF91CF917DC41F93CF93DF930A
:1021F000EC0177FF05C071956195710911E001C08F
:1022000010E0613981E0780714F060E971E023E3C0
:10221000269FC001279F900D112460E570E00E9469
:10222000E0288B8142D3112311F061E001C060E00E
:102230008981DF91CF911F9191C41F93CF93DF9339
:10224000EC0177FF05C071956195710911E001C03E
:1022500010E0613981E0780714F060E971E023E370
:10226000269FC001279F900D112460E570E00E9419
:10227000E0288C811AD3112311F061E001C060E0E5
:102280008A81DF91CF911F9169C4FC018681E8D2D8
:1022900029E0AC01249FC001259F900D11240895D1
:1022A000FC018781DDD229E0AC01249FC001259F7C
:1022B000900D112408950F931F93CF93DF938B01FB
:1022C000EA01F90120E030E040E85FE360817181DC
:1022D000828193810E949227811129C080911904E3
:1022E00090911A04F801019769F4608171818281EB
:1022F00093810E94962781E194E077DF81E194E069
:10230000C4DF0CC060817181828193810E94962715
:1023100081E194E092DF81E194E0C2DFBC0180E0E2
:1023200090E00E94C727688379838A839B83DF912B
:10233000CF911F910F9108950F931F93CF93DF9328
:102340008C01E90120E030E040E85FE368817981B9
:102350008A819B810E9492278823B1F081E194E0D9
:1023600024DFF80160817181828193810E94962728
:1023700070931A046093190480E090E0A0E8BFE332
:1023800088839983AA83BB83DF91CF911F910F919B
:10239000089581E194E0F7CE089508951F920F9279
:1023A0000FB60F9211240BB60F922F933F934F93BA
:1023B0005F936F937F938F939F93AF93BF93EF93AD
:1023C000FF93E0917202F09173021995FF91EF91E2
:1023D000BF91AF919F918F917F916F915F914F913D
:1023E0003F912F910F900BBE0F900FBE0F901F903B
:1023F00018951F920F920FB60F9211240BB60F92E1
:102400002F933F934F935F936F937F938F939F93FC
:10241000AF93BF93EF93FF93E0917402F091750235
:102420001995FF91EF91BF91AF919F918F917F91FE
:102430006F915F914F913F912F910F900BBE0F9035
:102440000FBE0F901F9018951F920F920FB60F920C
:1024500011240BB60F922F933F934F935F936F937B
:102460007F938F939F93AF93BF93EF93FF93E091ED
:102470007602F09177021995FF91EF91BF91AF919C
:102480009F918F917F916F915F914F913F912F918C
:102490000F900BBE0F900FBE0F901F9018951F92BC
:1024A0000F920FB60F9211240BB60F922F933F93FA
:1024B0004F935F936F937F938F939F93AF93BF934C
:1024C000EF93FF93E0917802F09179021995FF91D3
:1024D000EF91BF91AF919F918F917F916F915F919C
:1024E0004F913F912F910F900BBE0F900FBE0F9009
:1024F0001F9018951F920F920FB60F9211240BB6D2
:102500000F922F933F934F935F936F937F938F938C
:102510009F93AF93BF93EF93FF93E0916E02F0917F
:102520006F021995FF91EF91BF91AF919F918F919C
:102530007F916F915F914F913F912F910F900BBEC3
:102540000F900FBE0F901F9018951F920F920FB60D
:102550000F9211240BB60F922F933F934F935F93DB
:102560006F937F938F939F93AF93BF93EF93FF935B
:10257000E0917002F09171021995FF91EF91BF9176
:10258000AF919F918F917F916F915F914F913F910B
:102590002F910F900BBE0F900FBE0F901F901895AC
:1025A0001F920F920FB60F9211240BB60F922F931A
:1025B0003F934F935F936F937F938F939F93AF93CB
:1025C000BF93EF93FF93E0917A02F0917B0219950C
:1025D000FF91EF91BF91AF919F918F917F916F91FB
:1025E0005F914F913F912F910F900BBE0F900FBEB7
:1025F0000F901F9018951F920F920FB60F921124F3
:102600000BB60F922F933F934F935F936F937F93EC
:102610008F939F93AF93BF93EF93FF93E0917C02CF
:10262000F0917D021995FF91EF91BF91AF919F912C
:102630008F917F916F915F914F913F912F910F906B
:102640000BBE0F900FBE0F901F9018951F920F9208
:102650000FB60F9211242F933F938F939F93AF93B5
:10266000BF9380911C0490911D04A0911E04B09111
:102670001F0430911B0423E0230F2D3720F4019613
:10268000A11DB11D05C026E8230F0296A11DB11D95
:1026900020931B0480931C0490931D04A0931E049C
:1026A000B0931F048091200490912104A0912204F2
:1026B000B09123040196A11DB11D80932004909335
:1026C0002104A0932204B0932304BF91AF919F9162
:1026D0008F913F912F910F900FBE0F901F901895E3
:1026E0003FB7F8948091200490912104A091220496
:1026F000B091230426B5A89B05C02F3F19F0019681
:10270000A11DB11D3FBFBA2FA92F982F8827820F77
:10271000911DA11DB11DBC01CD0142E0660F771FC7
:10272000881F991F4A95D1F708958F929F92AF9273
:10273000BF92CF92DF92EF92FF926B017C01D0DFCC
:102740004B015C01C114D104E104F104F1F024DE79
:10275000C7DFDC01CB0188199909AA09BB09883EAA
:102760009340A105B10570F321E0C21AD108E10838
:10277000F10888EE880E83E0981EA11CB11CC114DC
:10278000D104E104F10421F7DDCFFF90EF90DF9059
:10279000CF90BF90AF909F908F900895789484B51C
:1027A000826084BD84B5816084BD85B5826085BD4D
:1027B00085B5816085BDEEE6F0E080818160808333
:1027C000E1E8F0E010828081826080838081816016
:1027D0008083E0E8F0E0808181608083E1EBF0E0DD
:1027E000808184608083E0EBF0E080818160808381
:1027F000E1E9F0E080818260808380818160808374
:10280000E0E9F0E0808181608083E1EAF0E08081AE
:1028100082608083808181608083E0EAF0E0808153
:1028200081608083E1E2F1E0808182608083808149
:1028300081608083E0E2F1E0808181608083EAE76B
:10284000F0E08081846080838081826080838081E9
:10285000816080838081806880831092C1000895A8
:10286000863308F0865390917B00282F2870977F3D
:10287000922B90937B00877020917E0290E4299F99
:1028800090011124822B80937C0080917A008064D7
:1028900080937A0080917A0086FDFCCF8091780049
:1028A0002091790090E0922B08951F93CF93DF93AE
:1028B000182FEB0161E016D1209711F460E004C0FD
:1028C000CF3FD10531F461E0812FDF91CF911F918E
:1028D00045C1E12FF0E0E45BFE4FE4914E2F50E064
:1028E000FA013197E231F10508F09DC08827EE58D2
:1028F000FF4F8F4F0C94152984B5806884BDC7BDE8
:1029000097C084B5806284BDC8BD92C080918000AC
:10291000806880938000D0938900C093880088C02D
:1029200080918000806280938000D0938B00C09360
:102930008A007EC080918000886080938000D09360
:102940008D00C0938C0074C08091B000806880932B
:10295000B000C093B3006CC08091B00080628093DF
:10296000B000C093B40064C08091900080688093F0
:102970009000D0939900C09398005AC08091900025
:10298000806280939000D0939B00C0939A0050C0C7
:1029900080919000886080939000D0939D00C093B8
:1029A0009C0046C08091A00080688093A000809128
:1029B000A0008F7B8093A000D093A900C093A800B3
:1029C00037C08091A00080628093A000D093AB00BC
:1029D000C093AA002DC08091A00088608093A000C1
:1029E000D093AD00C093AC0023C0809120018068DB
:1029F00080932001D0932901C093280119C08091B0
:102A00002001806280932001D0932B01C0932A0182
:102A10000FC080912001886080932001D0932D0108
:102A2000C0932C0105C0C038D1050CF04CCF46CF67
:102A3000DF91CF911F91089590E0FC013197E23131
:102A4000F10508F04EC08827EC57FF4F8F4F0C94CC
:102A50001529809180008F7703C0809180008F7D41
:102A600080938000089580918000877FF9CF84B59E
:102A70008F7702C084B58F7D84BD08958091B000AA
:102A80008F7703C08091B0008F7D8093B000089550
:102A9000809190008F7707C0809190008F7D03C058
:102AA00080919000877F8093900008958091A0008E
:102AB0008F7707C08091A0008F7D03C08091A00018
:102AC000877F8093A0000895809120018F7707C0B1
:102AD000809120018F7D03C080912001877F8093AA
:102AE00020010895CF93DF9390E0FC01EE56FE4F56
:102AF0002491FC01E852FE4F8491882361F190E01B
:102B0000880F991FFC01E85CFD4FC591D491FC0131
:102B1000E25EFD4FA591B491611109C09FB7F89491
:102B20008881209582238883EC912E230BC062300C
:102B300061F49FB7F8943881822F8095832388832E
:102B4000EC912E2B2C939FBF06C08FB7F894E88191
:102B50002E2B28838FBFDF91CF9108951F93CF93A2
:102B6000DF93282F30E0F901E45BFE4F8491F901F7
:102B7000EE56FE4FD491F901E852FE4FC491CC239A
:102B8000C1F0162F811158DFEC2FF0E0EE0FFF1F80
:102B9000E25EFD4FA591B4918FB7F894111105C075
:102BA0009C91ED2FE095E92302C0EC91ED2BEC9385
:102BB0008FBFDF91CF911F910895FC01918D228DE0
:102BC000892F90E0805C9F4F821B91098F7399271A
:102BD0000895FC01918D828D981731F0828DE80F58
:102BE000F11D858D90E008958FEF9FEF0895FC0112
:102BF000918D828D981761F0828DDF01A80FB11D34
:102C00005D968C91928D9F5F9F73928F90E0089557
:102C10008FEF9FEF0895FC01848DDF01A80FB11D98
:102C2000A35ABF4F2C91848D90E001968F73992702
:102C3000848FA689B7892C93A089B1898C918064EF
:102C40008C93938D848D981306C00288F389E02DB0
:102C500080818F7D80830895CF93DF93EC01888DF1
:102C60008823C1F0EA89FB89808185FD05C0A88998
:102C7000B9898C9186FD0EC00FB607FCF5CF808117
:102C800085FFF2CFA889B9898C9185FFEDCFCE0160
:102C9000C2DFE8CFDF91CF910895EF92FF920F93BB
:102CA0001F93CF93DF93EC0181E0888F9B8D8C8DF8
:102CB000981305C0E889F989808185FD23C0F62E27
:102CC0000B8D10E00F5F1F4F0F731127E02E8C8DBF
:102CD000E8120BC00FB607FCFACFE889F9898081AA
:102CE00085FFF5CFCE0197DFF2CF8B8DFE01E80F88
:102CF000F11DE35AFF4FF0820B8FEA89FB89808137
:102D0000806207C0EE89FF896083E889F989808144
:102D10008064808381E090E0DF91CF911F910F91DB
:102D2000FF90EF900895CF92DF92EF92FF921F9362
:102D3000CF93DF93EC016A017B01122FE889F989B7
:102D400082E080834115514E61057105B1F060E06C
:102D500079E08DE390E0A70196010E94F328DA0163
:102D6000C9010197A109B109B695A79597958795CE
:102D7000AC01411580E15807A8F0E889F989108273
:102D800060E874E88EE190E0A70196010E94F328C4
:102D9000BA01A901415051096109710976956795F8
:102DA00057954795EC85FD855083EE85FF854083DB
:102DB000188EEC89FD891083EA89FB898081806106
:102DC0008083EA89FB89808188608083EA89FB8926
:102DD000808180688083EA89FB8980818F7D808300
:102DE000DF91CF911F91FF90EF90DF90CF900895EA
:102DF0001F920F920FB60F9211240BB60F922F93C2
:102E00008F939F93EF93FF93E0913404F0913504F7
:102E10008081E0913A04F0913B0482FD12C09081E0
:102E200080913D048F5F8F7320913E04821751F093
:102E3000E0913D04F0E0EC5DFB4F958F80933D0405
:102E400001C08081FF91EF919F918F912F910F9001
:102E50000BBE0F900FBE0F901F9018951F920F92F0
:102E60000FB60F9211240BB60F922F933F934F93EF
:102E70005F936F937F938F939F93AF93BF93EF93E2
:102E8000FF9384E294E0C7DEFF91EF91BF91AF9191
:102E90009F918F917F916F915F914F913F912F9172
:102EA0000F900BBE0F900FBE0F901F901895E4E28D
:102EB000F4E01382128288EE93E0A0E0B0E0848315
:102EC0009583A683B78387E093E09183808385EC25
:102ED00090E09587848784EC90E09787868780ECE4
:102EE00090E0918B808B81EC90E0938B828B82ECD5
:102EF00090E0958B848B86EC90E0978B868B118E7F
:102F0000128E138E148E08951F920F920FB60F9289
:102F100011240BB60F922F938F939F93EF93FF93F0
:102F2000E091D104F091D2048081E091D704F09136
:102F3000D80482FD12C090818091DA048F5F8F7374
:102F40002091DB04821751F0E091DA04F0E0EF53B6
:102F5000FB4F958F8093DA0401C08081FF91EF9140
:102F60009F918F912F910F900BBE0F900FBE0F90DE
:102F70001F9018951F920F920FB60F9211240BB647
:102F80000F922F933F934F935F936F937F938F9302
:102F90009F93AF93BF93EF93FF9381EC94E03BDE5D
:102FA000FF91EF91BF91AF919F918F917F916F9121
:102FB0005F914F913F912F910F900BBE0F900FBEDD
:102FC0000F901F901895E1ECF4E01382128288EEC6
:102FD00093E0A0E0B0E084839583A683B78387E085
:102FE00093E0918380838DEC90E0958784878CECCF
:102FF00090E09787868788EC90E0918B808B89ECB6
:1030000090E0938B828B8AEC90E0958B848B8EEC96
:1030100090E0978B868B118E128E138E148E0895EE
:103020001F920F920FB60F9211240BB60F922F938F
:103030008F939F93EF93FF93E0916E05F0916F054F
:103040008081E0917405F091750582FD12C0908138
:10305000809177058F5F8F7320917805821751F0EB
:10306000E0917705F0E0E25AFA4F958F809377056B
:1030700001C08081FF91EF919F918F912F910F90CF
:103080000BBE0F900FBE0F901F9018951F920F92BE
:103090000FB60F9211240BB60F922F933F934F93BD
:1030A0005F936F937F938F939F93AF93BF93EF93B0
:1030B000FF938EE595E0AFDDFF91EF91BF91AF916A
:1030C0009F918F917F916F915F914F913F912F9140
:1030D0000F900BBE0F900FBE0F901F901895EEE54E
:1030E000F5E01382128288EE93E0A0E0B0E08483E2
:1030F0009583A683B78387E093E09183808385EDF2
:1031000090E09587848784ED90E09787868780EDAF
:1031100090E0918B808B81ED90E0938B828B82EDA0
:1031200090E0958B848B86ED90E0978B868B118E4B
:10313000128E138E148E08951F920F920FB60F9257
:1031400011240BB60F922F938F939F93EF93FF93BE
:10315000E0910B06F0910C068081E0911106F09150
:10316000120682FD12C09081809114068F5F8F73CA
:1031700020911506821751F0E0911406F0E0E55019
:10318000FA4F958F8093140601C08081FF91EF91D3
:103190009F918F912F910F900BBE0F900FBE0F90AC
:1031A0001F9018951F920F920FB60F9211240BB615
:1031B0000F922F933F934F935F936F937F938F93D0
:1031C0009F93AF93BF93EF93FF938BEF95E023DD36
:1031D000FF91EF91BF91AF919F918F917F916F91EF
:1031E0005F914F913F912F910F900BBE0F900FBEAB
:1031F0000F901F901895EBEFF5E01382128288EE86
:1032000093E0A0E0B0E084839583A683B78387E052
:1032100093E09183808385E391E09587848784E3BD
:1032200091E09787868780E391E0918B808B81E3A3
:1032300091E0938B828B82E391E0958B848B86E384
:1032400091E0978B868B118E128E138E148E0895BB
:103250008F929F92AF92BF92CF92DF92EF92FF92A6
:103260000F931F93CF93DF937C018B016C0182E05E
:10327000C80ED11C4701E5E08E0E911CC0E0D0E0E5
:10328000F60161916F014AE050E0C801C6D05C01CF
:103290006EE2C80167D08A0D9B1DC80FD91FC814E4
:1032A000D90471F74AE050E0F7016581C801B5D053
:1032B0008C0F9D1FDF91CF911F910F91FF90EF9089
:1032C000DF90CF90BF90AF909F908F900895E8E9E6
:1032D000F6E087E193E09183808312821382148267
:1032E00015820895CF92DF92EF92FF920F931F9372
:1032F000CF93DF936C017A018B01C0E0D0E0CE1553
:10330000DF0589F0D8016D918D01D601ED91FC9119
:103310000190F081E02DC6011995892B11F47E01F1
:1033200002C02196ECCFC701DF91CF911F910F9181
:10333000FF90EF90DF90CF9008956115710579F0BF
:10334000FB0101900020E9F73197AF01461B570BB5
:10335000DC01ED91FC910280F381E02D199480E075
:1033600090E00895DC01ED91FC910190F081E02D59
:1033700019944F925F926F927F92EF92FF920F9308
:103380001F93CF93DF93CDB7DEB7A1970FB6F89415
:10339000DEBF0FBECDBF7C01FA01CB0119A22230E6
:1033A00008F42AE08E010F5D1F4F422E512C612C34
:1033B000712CBF01A30192010E94F328F901CA01F7
:1033C000015011096A3014F4605D01C0695CD801D4
:1033D0006C93232B242B252B61F7B801C701ADDF9C
:1033E000A1960FB6F894DEBF0FBECDBFDF91CF918F
:1033F0001F910F91FF90EF907F906F905F904F9093
:1034000008952115310541F4DC01ED91FC91019005
:10341000F081E02D642F1994ACCF9A01462F50E033
:1034200060E070E0EECF8230A9F028F4882349F004
:10343000813051F00895843021F1E8F0853039F180
:10344000089510926E00089580916F008D7F809393
:103450006F000895809170008D7F8093700081E0EF
:103460008093B0008091B100887F84608093B10028
:103470001092B3000895809171008D7F8093710048
:103480000895809172008D7F8093720008958091DD
:1034900073008D7F809373000895CF93C82F809120
:1034A0007F028C1307C0E2E5F2E0E4918FEF809396
:1034B0007F0201C0EFEF8E2FB6DF60E08C2FCF913F
:1034C0004DCB1F920F920FB60F9211240BB60F9295
:1034D0002F933F934F935F936F937F938F939F931C
:1034E000AF93BF93EF93FF938091A1069091A206B3
:1034F000A091A306B091A406892B8A2B8B2B51F1A6
:1035000080919E06E0919F06F091A0069081892708
:1035100080838091A1069091A206A091A306B0910C
:10352000A406181619061A061B06BCF48091A106FB
:103530009091A206A091A306B091A4060197A109BB
:10354000B1098093A1069093A206A093A306B0931D
:10355000A40603C080917F02A0DFFF91EF91BF918D
:10356000AF919F918F917F916F915F914F913F911B
:103570002F910F900BBE0F900FBE0F901F901895BC
:1035800040E855E260E070E080E090E000C081300B
:10359000910571F01CF4892B39F008958230910562
:1035A00059F0039769F0089526E084E294E00BC097
:1035B00026E081EC94E007C026E08EE595E003C0AC
:1035C00026E08BEF95E0AFCB1F920F920FB60F92D4
:1035D00011240BB60F922F933F934F935F936F93EA
:1035E0007F938F939F93AF93BF93EF93FF938BEC56
:1035F00093EF90932501809324010E948426FF91EC
:10360000EF91BF91AF919F918F917F916F915F915A
:103610004F913F912F910F900BBE0F900FBE0F90C7
:103620001F9018958BEC93EF9093250180932401C4
:10363000A3E7B0E08C918E7F8C93E0E2F1E0808193
:103640008C7F8083E1E2F1E08081877E80838081CE
:103650008560808380818D7F80838C9181608C9355
:10366000089581E008956F927F928F929F92AF921A
:10367000BF92CF92DF92EF92FF920F931F93CF935F
:10368000DF935C017B014A0101E010E00E151F058C
:1036900064F568018FEFC81AD80AE801CC0FDD1F66
:1036A000C80DD91D6880798061147104E1F069E169
:1036B00073E0C3010E94882A892B19F419821882A9
:1036C00012C06CE173E0C3010E94882A892B59F46F
:1036D000CE14DF0441F06801E2E0CE0ED11C198265
:1036E00018821B821A828601D1CF81E0F501808386
:1036F000B401C7010E94D425F5019283818380E043
:1037000090E0DF91CF911F910F91FF90EF90DF90AC
:10371000CF90BF90AF909F908F907F906F900895C3
:1037200085EA96E0089580E008950F931F93CF9364
:10373000DF938B01BA01E901198218829801012EE9
:10374000000C440B550BFC01818192810E947F107B
:10375000019621F01983088380E001C081E0DF91A8
:10376000CF911F910F9108950F931F93CF93DF93E4
:103770001F921F92CDB7DEB7FB018A01B9019E01EE
:103780002F5F3F4FAF01FC01818192810E94EB25A9
:10379000019639F089819A81F8019183808380E0D4
:1037A00001C081E00F900F90DF91CF911F910F9199
:1037B0000895FC01808108950895089581E0FB013A
:1037C000808380E0089508951092CF060895FC014B
:1037D000818192810C94CB25CF93DF93CDB7DEB757
:1037E0002A970FB6F894DEBF0FBECDBFAC01CB0158
:1037F00060E070E049835A836B837C83092E000C60
:10380000AA0BBB0B8D839E83AF83B8879E01275F76
:103810003F4FAE014F5F5F4F68E070E08091BE06A2
:103820009091BF0682DF811108C081E029853A8529
:103830002830310519F480E001C081E02A960FB6E6
:10384000F894DEBF0FBECDBFDF91CF9108950F93E7
:103850001F93CF93DF931F921F92CDB7DEB78B01DB
:103860009E012F5F3F4FAC018091BE069091BF0635
:103870005CDF811108C081E029813A81201731077E
:1038800019F480E001C081E00F900F90DF91CF919B
:103890001F910F910895CF93DF93EC011092C20610
:1038A0001092C1061092CE061092CD06AC0160E0D7
:1038B00070E0CB010E94EE09AE0161E070E080E0B3
:1038C00090E00E94EE098091BE069091BF06DF91C4
:1038D000CF9179CF4F925F926F927F928F929F920A
:1038E000AF92BF92CF92DF92EF92FF920F931F930E
:1038F000CF93DF931F921F92CDB7DEB79C016C016F
:1039000097FF03C087E0C80ED11C43E0D594C7944D
:103910004A95E1F7C90168E070E00E94E0287C0167
:1039200089010E5F1F4F8091BC069091BD068017E4
:1039300091070CF0DCC08091BA069091BB0600970D
:1039400031F00E94E0291092BD061092BC06C80119
:103950000E944B299093BB068093BA06892B29F0CD
:103960001093BD060093BC06C2C0A12CB12CAC14B0
:10397000BD040CF05EC0412C512C320100E010E07F
:1039800098012D53394FAE014F5F5F4F61E070E0FA
:103990008091BE069091BF06E7DE811198C18981B2
:1039A0009A812FEF421A520A620A720A20E94216DD
:1039B0002FE5520621E0620671043CF06091CD06CD
:1039C0007091CE068DEE90E02DC0080F191F0A30C1
:1039D000110551F549E050E060E070E083EC96E0BD
:1039E0000E9476266091CD067091CE068823C1F0A4
:1039F0008091CB0690E06817790709F0B8CF8EEE7A
:103A000090E0EADE8091CD069091CE06019699274E
:103A10009093CE068093CD068FEFA81AB80AA7CF51
:103A20008FEE90E0D9DEA7CF0A3011050CF4A8CFB5
:103A30009ECFEF2809F44BC1C12CD12C760100E0B8
:103A400010E098012D53394FAE014F5F5F4F61E099
:103A500070E08091BE069091BF0686DE811137C16D
:103A600089819A812FEFC21AD20AE20AF20A20E96A
:103A7000C2162FE5D20621E0E206F1043CF0609187
:103A8000CD067091CE068DEE90E02AC0080F191F6A
:103A90000A30110539F549E050E060E070E083EC50
:103AA00096E00E9476266091CD067091CE0688231E
:103AB000A9F08091CB0690E06817790709F007C15B
:103AC0008EEE90E089DE8091CD069091CE06019633
:103AD00099279093CE068093CD06F9C08FEE90E0A3
:103AE0007BDEAACF0A3011050CF4ABCFF0C000E0AA
:103AF00010E00C151D050CF077C0412C512C320143
:103B0000A12CB12C480193E0880C991C9A95E1F7FF
:103B10002091BA063091BB06C4018A0D9B1D280F67
:103B2000391FAE014F5F5F4F61E070E08091BE06CC
:103B30009091BF0619DE8111CAC089819A812FEF49
:103B4000421A520A620A720A20E942162FE5520608
:103B500021E0620671043CF06091CD067091CE06C2
:103B60008DEE90E034C0A80EB91E8AE0A816B1040C
:103B7000A9F549E050E0B4018091BA069091BB06E6
:103B80000E9476266091CD067091CE068823E9F0DA
:103B90008091BA069091BB06FC01E80DF91D808565
:103BA00090E06817790709F0A4CF8EEE90E014DE5C
:103BB0008091CD069091CE06019699279093CE06DE
:103BC0008093CD060F5F1F4F94CF8FEE90E004DE01
:103BD000412C512C3201A12CB12C9ACF2AE0A216F3
:103BE000B1040CF495CF85CFE114F10409F46AC057
:103BF000680183E0CC0CDD1C8A95E1F7812C912CC7
:103C0000540100E010E098012D53394FAE014F5F91
:103C10005F4F61E070E08091BE069091BF06A4DD29
:103C2000811155C089819A812FEF821A920AA20AC6
:103C3000B20A20E982162FE5920621E0A206B1041D
:103C40003CF06091CD067091CE068DEE90E034C0D0
:103C5000080F191F0A30110589F549E050E060E0AE
:103C600070E083EC96E00E9476266091CD0670911C
:103C7000CE068823F9F08091CB0690E0681779078B
:103C800009F58EEE90E0A8DD8091BA069091BB0612
:103C9000A70163EC76E08C0D9D1D0E94782A80912F
:103CA000CD069091CE06019699279093CE068093EB
:103CB000CD0608C08FEE90E08FDDA0CF0A30110551
:103CC0000CF4A1CF8091BA069091BB0602C080E0AF
:103CD00090E00F900F90DF91CF911F910F91FF9087
:103CE000EF90DF90CF90BF90AF909F908F907F909C
:103CF0006F905F904F900895CF92DF92EF92FF9276
:103D00000F931F93CF93DF931F92CDB7DEB76C0154
:103D10007B018A01452B31F0AB0160E070E0C80106
:103D2000E1D78983B701C60157DD81110DC00115A7
:103D3000110551F0B701C8018ADD811105C061E0AC
:103D400070E0CE01019683DD0F90DF91CF911F913E
:103D50000F91FF90EF90DF90CF900895CF92DF9278
:103D6000EF92FF92CF93DF93CDB7DEB728970FB6D0
:103D7000F894DEBF0FBECDBF6B01E12CF12CC982E0
:103D8000DA82EB82FC822D833E834F835887AE011B
:103D90004F5F5F4F68E070E0AFDF28960FB6F89492
:103DA000DEBF0FBECDBFDF91CF91FF90EF90DF90D0
:103DB000CF9008950F931F93CF93DF93EC018B0166
:103DC000AFDC9093BF068093BE06009739F0A80140
:103DD000BE0149DCEC01892B19F40BC0C8E2D3E029
:103DE0008091BE069091BF06E7DC1092BF0610924C
:103DF000BE06CE01DF91CF911F910F910895809162
:103E0000BE069091BF06D5CC2F923F924F925F9203
:103E10006F927F928F929F92AF92BF92CF92DF92DA
:103E2000EF92FF920F931F93CF93DF93CDB7DEB73F
:103E300069970FB6F894DEBF0FBECDBF2091C206C2
:103E4000222309F426C25D8B4C8B688B798B8A8B7D
:103E50009B8B9A01AB01BC01CE0101960E94EE0E34
:103E600010E038E0232E312C89819A81181619062A
:103E70000CF00AC21F861E861D861C8689819A81C7
:103E8000AC85BD85A817B9070CF0F3C1EB81FC81A7
:103E90002E853F85E20FF31F208131813093B906D3
:103EA0002093B806848195819093B7068093B606D7
:103EB000428153815093B5064093B40646815781A1
:103EC0005093B3064093B206820F931F9C01990F43
:103ED000440B550B2E8B3F8B488F598FC12CD12C07
:103EE00076012E893F89488D598DC216D306E40686
:103EF000F50608F0A2C11F826091B8067091B9065C
:103F00008B01072E000C220B330BD701C601049640
:103F1000A11DB11D80179107A207B30728F4E091F6
:103F2000B406F091B5060AC0E4E0F0E0E61BF70B3A
:103F3000EC0DFD1D8091B2069091B306E80FF91FBC
:103F40004080512C612C712CD701C6010596A11D12
:103F5000B11D80179107A207B30728F4E091B406BA
:103F6000F091B5060AC0E5E0F0E0E61BF70BEC0DBA
:103F7000FD1D8091B2069091B306E80FF91F808174
:103F8000582AD701C6010696A11DB11D80179107B9
:103F9000A207B30728F4E091B406F091B5060AC071
:103FA000E6E0F0E0E61BF70BEC0DFD1D8091B2069C
:103FB0009091B306E80FF91F8081682AD701C601E6
:103FC0000796A11DB11D80179107A207B30728F41A
:103FD000E091B406F091B5060AC0E7E0F0E0E61B18
:103FE000F70BEC0DFD1D8091B2069091B306E80F22
:103FF000F91F8081782A4601570148E0840E911C00
:10400000A11CB11C081519052A053B0508F4B4C00C
:10401000C016D106E206F30638F48091B4069091FA
:10402000B5068C0D9D1D09C0C601861B970B2091FE
:10403000B2063091B306820F931F68E070E007DC90
:10404000E091B806F091B9069F010F2E000C440BC9
:10405000550BD301C201880D991DAA1DBB1D281740
:1040600039074A075B07C8F082169306A406B5060F
:1040700038F42091B4063091B506C601089609C0FF
:10408000C1018E1B9F0B8C0D9D1D2091B20630919E
:10409000B306820F931FB20199C08601BF01685019
:1040A00071096C197D0982169306A406B50638F4C9
:1040B0002091B4063091B506C601089609C0C10129
:1040C0008E1B9F0B8C0D9D1D2091B2063091B30667
:1040D000820F931FBCDB8091B8069091B906B101A5
:1040E000681B790B600F711F640D751D8091B206FE
:1040F0009091B306ACDB8091B8069091B906AC0103
:1041000048505109FA01E01BF10BAC01092E000CDB
:10411000660B770B84169506A606B70638F4209131
:10412000B4063091B506C60108960AC09101281B55
:10413000390BC9018C0D9D1D2091B2063091B3063B
:10414000820F931FAF0160E070E0CCD58F83209188
:10415000B8063091B906A101421B530B9A01200FFA
:10416000311F240D351D40E050E0682F8091B206CC
:104170009091B306A3D550C0C016D106E206F3064F
:10418000C8F46C197D098091B4069091B5068C0D28
:104190009D1D5DDB8091B8069091B906B101681B49
:1041A000790B6C0D7D1D640D751D8091B20690918B
:1041B000B3060CC0C601861B970B2091B206309146
:1041C000B306B201685F7F4F820F931F40DB80917F
:1041D000B8069091B906AC01092E000C660B770B5E
:1041E00084169506A606B70638F42091B4063091D9
:1041F000B506C60108960AC0D101A81BB90BCD01AE
:104200008C0D9D1D2091B2063091B306820F931F35
:10421000A20160E070E066D58F8361E070E0CE01BE
:10422000079615DB182FB8E04B0E511C611C711C52
:10423000C40CD51CE61CF71C54CE8C859D85880FBC
:10424000991FED81FE81E80FF91F488959896A8914
:104250007B89808191810E94200A4C855D854F5F1A
:104260005F4F5D874C878E859F8508969F878E87D9
:1042700005CE2C893D89488959896A897B89CE0177
:1042800001960E94EE0EF0CD112319F08C899D89C4
:1042900002DB69960FB6F894DEBF0FBECDBFDF918B
:1042A000CF911F910F91FF90EF90DF90CF90BF9033
:1042B000AF909F908F907F906F905F904F903F90C6
:1042C0002F900895CF93DF93EC01AC0160E070E094
:1042D000CB019ADDAE0161E070E080E090E0DF911B
:1042E000CF9192CDCF938091BE069091BF061BDAFD
:1042F000C82F81110BC060E070E0CB010E94F00478
:1043000061E070E080E090E00E94F0048C2FCF919B
:1043100008950F931F9389019A01AB01BC0180910D
:10432000BE069091BF0649DA1F910F9108953F9202
:104330004F925F926F927F928F929F92AF92BF92B5
:10434000CF92DF92EF92FF920F931F93CF93DF9361
:10435000CDB7DEB767970FB6F894DEBF0FBECDBFFF
:104360006C017B015A018091C206882331F0809153
:10437000C206882309F45CC30AC062EC76E080912F
:10438000BE069091BF061ADA811152C3F0CF809118
:10439000C1061A821982882309F46AC0E0E94E2E08
:1043A000EFE55E2E66246394712C00E010E0980126
:1043B0002855394FAE014F5F5F4F61E070E080914B
:1043C000BE069091BF06D0D9982E81114DC089812B
:1043D0009A81080F191F0115110509F445C081E0E4
:1043E000481A51086108710839F46091CD0670913E
:1043F000CE068DEE90E030C00A30110589F549E017
:1044000050E060E070E088EA96E070D46091CD06FC
:104410007091CE068823F1F08091B00690E0681785
:104420007907D9F48EEE90E0D7D988E0E8EAF6E093
:10443000DE01199601900D928A95E1F72091CD0643
:104440003091CE062F5F3F4F33273093CE06209317
:10445000CD060AC08FEE90E0BFD91A82198204C03F
:104460000A3011050CF4A3CF81E029813A8124C0E0
:1044700000E010E078E0672E712C29E030E02C0F8E
:104480003D1F200F311FAE014F5F5F4FB301601B17
:10449000710B8091BE069091BF0666D9982E298136
:1044A0003A81811108C0020F131F0115110519F07F
:1044B0000830110514F381E0121613060CF080E0A9
:1044C0009110B3C2882309F4B3C28091C10681114F
:1044D00004C019861A861B861C8689859A85AB8539
:1044E000BC858031910508F0A3C2FC018827EA56FB
:1044F000FF4F8F4F9AC6D6011696ED91FC911797F4
:1045000080819181A281B38189839A83AB83BC83AB
:10451000AE014F5F5F4F64E070E085E190E07DC1E8
:104520008D859E85D7D9009731F42FEF3FEFA901F4
:1045300061E070E00EC0FC0180809180A280B380B9
:10454000A701C501B4010E949909A501940160E089
:1045500070E08DE190E067C28D859E85BBD90097A4
:1045600021F42FEF3FEFA90110C0DC018D909D9049
:10457000AD90BD90AD0195018401B701C6010E94C7
:104580003506A5019401882319F061E070E002C0AE
:1045900060E070E08BE190E046C28D859E859AD9FF
:1045A000009721F42FEF3FEFA9010FC0FC0181908C
:1045B0009190A190B190BF01A5019401C6010E9404
:1045C0003E08A5019401882319F061E070E002C063
:1045D00060E070E08CE190E026C2D6011496ED9187
:1045E000FC91159700811181F80182809380A08051
:1045F000B18060E1462E512C612C712C49825A8287
:104600006B827C8288E090E0A0E0B0E08D839E83A6
:10461000AF83B8879E012F5E3F4FAE014F5F5F4F64
:1046200068E070E08091BE069091BF067ED8882336
:1046300019F000E010E0BAC089899A890897C9F793
:10464000D801ED90FC90B8E0EB0EF11CEE0CFF1CD5
:10465000EE0CFF1CC7011FD68C01892B51F3498238
:104660005A826B827C82C7010F2C000CAA0BBB0BF9
:104670008D839E83AF83B8879E012F5E3F4FAE012F
:104680004F5F5F4F68E070E08091BE069091BF067B
:104690004CD881118BC089899A89089709F086C006
:1046A000D6011296ED91FC91139740815181628160
:1046B0007381D8014D935D936D937C9313974481DF
:1046C00055816681778114964D935D936D937C93AC
:1046D0001797408551856285738518964D935D9334
:1046E0006D937C931B9784859585A685B785F80186
:1046F00084879587A687B787108A118A128A138ABA
:1047000084E090E0A0E0B0E0848B958BA68BB78B23
:1047100080916C0290916D02A0E0B0E0808F918F4B
:10472000A28FB38FC5010B2C000CAA0BBB0B848F7F
:10473000958FA68FB78FF401D801909680E090E016
:104740008A159B0554F44191519160E070E04D93BE
:104750005D936D937D930196F3CF9E012F5E3F4F46
:10476000A801B7018091BE069091BF060E94951BDB
:1047700081111CC089899A898E159F05B9F4A701FA
:1047800060E070E0C801AED28B8B9E012F5E3F4F80
:10479000AE014D5E5F4F61E070E08091BE0690918A
:1047A000BF060E94951B81E08093C106C8016796F1
:1047B0000FB6F894DEBF0FBECDBFDF91CF911F9132
:1047C0000F91FF90EF90DF90CF90BF90AF909F90B0
:1047D0008F907F906F905F904F903F90F1C58D8547
:1047E0009E85AF85B8890097A105B10521F481E0C8
:1047F0008093C0061DC16ED8009789F481E090E0D7
:10480000A0E0B0E089839A83AB83BC83AE014F5FA5
:104810005F4F64E070E082E190E06EDA09C1BC01B4
:10482000C6010E94430419821A821B821C82AE01B7
:104830004F5F5F4F64E070E082E190E05DDA8111EC
:10484000F7C0D5CFD6011496ED91FC911597019044
:10485000F081E02D008511858FEF89830115110509
:1048600009F472C0D8016D907C90A280B38020E0E2
:1048700030E060E070E080E090E0861597050CF590
:10488000F801A281B381A20FB31F1296ED91FC91A2
:104890001397EE0FFF1FEA0DFB1D0190F081E02D35
:1048A00016960D90BC91A02DEA9FA001EB9F500D94
:1048B000FA9F500D1124640F751F0196285F3F4F1A
:1048C000DCCF83E190E00E94EC1B8111B1C0C12CD0
:1048D000D12CE12CF12CE614F7047CF5D8011296CA
:1048E000ED91FC911397EC0DFD1D80809180A281CC
:1048F000B381AA0FBB1FAA0DBB1D2D913C918681D0
:104900009781289F2001299F500C389F500C11241B
:10491000B201C4010E94271C382E920140E050E0F1
:104920006981C401CBD18983B8E0CB0ED11C311091
:104930007FC0EFEFEE1AFE0ACECF61E070E0CE014D
:1049400001960E94271C74C060E070E083E190E053
:104950000E94EC1B6DC040E050E060E070E081E13F
:1049600090E0CAD9811164C0812C912C5401C501F9
:10497000B4010E941C0680910E04882321F0A70137
:10498000C501B40141DAA701C501B4010E941C05AB
:104990008A9489288A288B2829F0812C912C54010B
:1049A0008394E5CF1092C2061092C1061092CE06F3
:1049B0001092CD068091BE069091BF060E94E41B26
:1049C00037C081E090E09093100480930F0440E0A2
:1049D00050E060E070E086E190E01FCF81E0D5011B
:1049E0008C9326C08D859E850E946A1C009731F4A9
:1049F0002FEF3FEFA90161E070E013C0FC012081BF
:104A0000318142815381CA01B9012C8B3D8B4E8B80
:104A10005F8B0E94F9092C893D894E895F8960E08E
:104A200070E08EE190E09AD903C0C7010E944B1C50
:104A300067960FB6F894DEBF0FBECDBFDF91CF9162
:104A40001F910F91FF90EF90DF90CF90BF90AF90AC
:104A50009F908F907F906F905F904F903F900895C0
:104A6000CF92DF92EF92FF92CF93DF93EC01C12CB4
:104A7000D12C7601C701B6010E941C06AE01C70108
:104A8000B601C2D9AE01C701B6010E941C058091D2
:104A9000BA069091BB06009729F092D41092BB06FB
:104AA0001092BA06CA94CD28CE28CF2829F0C12C5E
:104AB000D12C7601C394DECF8091C106882359F0B2
:104AC00040E050E060E070E084E190E015D9F82E1D
:104AD0001092C10601C0F12C8091C206882341F0DA
:104AE0001092C20681E090E090936D0280936C0278
:104AF0008091BE069091BF060E94E71B8091BE0682
:104B00009091BF060E94DC1B8F2DDF91CF91FF900B
:104B1000EF90DF90CF900895CF93DF93EC01AC013D
:104B200060E070E0CB010E945F0EAE0161E070E0DA
:104B300080E090E0DF91CF910C945F0E60E070E038
:104B4000CB010E94CB0E61E070E080E090E00C941D
:104B5000CB0ECF92DF92EF92FF920F931F93CF93E2
:104B6000DF93EC016A017B0100E010E098010E94F4
:104B7000490A01E010E020E030E0B701A601CE01D3
:104B80000E94490ADF91CF911F910F91FF90EF9002
:104B9000DF90CF90089568EE73E080E090E00E948F
:104BA000951380E090E0089526E040E050E16EE04B
:104BB00070E084E294E00E94931684E294E00E9404
:104BC000DD15892B29F084E294E00E94F715F5CFDA
:104BD00080E090E00895AF92BF92CF92DF92EF9283
:104BE000FF920F931F93CF93DF931F921F92CDB726
:104BF000DEB77A018901F9011182108284E294E022
:104C000069837A830E94DD1569817A81892B99F104
:104C10005B01DD24D39485E6C82E8091CF068111F7
:104C200024C084E294E00E94F71585369105A9F727
:104C3000D092CF06F501C1925F01F8018081918188
:104C4000019691838083E9CF84E294E00E94F71576
:104C50008F3FFFEF9F0749F0F50181935F01F80156
:104C600080819181019691838083F8018081918177
:104C70008E159F0548F380E090E00F900F90DF9134
:104C8000CF911F910F91FF90EF90DF90CF90BF9049
:104C9000AF9008950F931F93CF93DF93EA0189019B
:104CA00084E294E00E947219F801D183C08380E00D
:104CB00090E0DF91CF911F910F910895DC01A40F37
:104CC000B51F240F351FAD01481B590B4217530761
:104CD00038F4ED91E627F0E0ED5AFD4F6491F3CF03
:104CE000862F08959A01AB016FEFE8CFCF93FC01B7
:104CF000E60FF71FE40FF51FC081F4DF91E0C81342
:104D000090E0892FCF9108958091D10691E0980F7E
:104D10009093D106882349F021E030E03093D30608
:104D20002093D2068093D106089578940E94E201E0
:104D3000F8948091D10681508093D1060C946F1025
:104D4000FF920F931F93CF93DF931F921F92CDB7C4
:104D5000DEB7FF24F394FA820E94CE130E94C01A99
:104D60000091010310910203F8011182108260E0AA
:104D700070E080E090E00E9478100E9483027894B6
:104D8000C80182960E94771081E090E00E94731023
:104D90001982AE014F5F5F4F61E070E0F8018281E0
:104DA00093810E941D108981882311F0F801F6A2D9
:104DB0000E947E10F8940E94121BF801808191815C
:104DC000892B19F481E096A1911180E08A8378946F
:104DD0007894FF24F3948A81882371F11982AE01BB
:104DE0004F5F5F4F61E070E0F801828193810E9424
:104DF00059108981882311F0F801F6A2F801808109
:104E00009181892B31F481E096A1911103C080E05A
:104E100001C081E08093D0069091D00681E091118D
:104E200080E08A838A81882319F00E94311B02C0A6
:104E300080E090E08A83CFCF0E94160381E090E06B
:104E40000E947510F89480E090E00F900F90DF9131
:104E5000CF911F910F91FF9008955058BB27AA271B
:104E60000ED00DC1FED030F003D120F031F49F3FC1
:104E700011F41EF4F3C00EF4E095E7FBE9C0E92F4E
:104E80000FD180F3BA17620773078407950718F0EC
:104E900071F49EF527C10EF4E0950B2EBA2FA02DCC
:104EA0000B01B90190010C01CA01A0011124FF27D7
:104EB000591B99F0593F50F4503E68F11A16F040D2
:104EC000A22F232F342F4427585FF3CF46953795D1
:104ED0002795A795F0405395C9F77EF41F16BA0B96
:104EE000620B730B840BBAF09150A1F0FF0FBB1F44
:104EF000661F771F881FC2F70EC0BA0F621F731F8D
:104F0000841F48F4879577956795B795F7959E3FE9
:104F100008F0B3CF9395880F08F09927EE0F979577
:104F20008795089571D008F481E0089504D06894BD
:104F3000B111D9C00895BCD088F09F5790F0B92F17
:104F40009927B751A0F0D1F0660F771F881F991FDE
:104F50001AF0BA95C9F712C0B13081F0C3D0B1E0F0
:104F60000895C0C0672F782F8827B85F39F0B93F00
:104F7000CCF3869577956795B395D9F73EF49095E0
:104F80008095709561957F4F8F4F9F4F0895E8945E
:104F900009C097FB3EF490958095709561957F4F81
:104FA0008F4F9F4F9923A9F0F92F96E9BB2793952F
:104FB000F695879577956795B795F111F8CFFAF43F
:104FC000BB0F11F460FF1BC06F5F7F4F8F4F9F4F70
:104FD00016C0882311F096E911C0772321F09EE8CE
:104FE000872F762F05C0662371F096E8862F70E034
:104FF00060E02AF09A95660F771F881FDAF7880F0E
:105000009695879597F90895990F0008550FAA0B63
:10501000E0E8FEEF16161706E807F907C0F01216CB
:105020001306E407F50798F0621B730B840B950BCE
:1050300039F40A2661F0232B242B252B21F4089523
:105040000A2609F4A140A6958FEF811D811D0895C0
:1050500097F99F6780E870E060E008959FEF80EC2B
:10506000089500240A9416161706180609060895CE
:1050700000240A9412161306140605060895092E34
:105080000394000C11F4882352F0BB0F40F4BF2BA3
:1050900011F460FF04C06F5F7F4F8F4F9F4F0895E3
:1050A00057FD9058440F551F59F05F3F71F04795D9
:1050B000880F97FB991F61F09F3F79F087950895BE
:1050C000121613061406551FF2CF4695F1DF08C0DD
:1050D000161617061806991FF1CF869571056105FA
:1050E00008940895E894BB2766277727CB0197F9A2
:1050F00008958ADF08F48FEF08950BD0C0CFB1DF99
:1051000028F0B6DF18F0952309F0A2CFA7CF11241D
:10511000EACFC6DFA0F3959FD1F3950F50E0551F5E
:10512000629FF001729FBB27F00DB11D639FAA27FC
:10513000F00DB11DAA1F649F6627B00DA11D661F4B
:10514000829F2227B00DA11D621F739FB00DA11D6C
:10515000621F839FA00D611D221F749F3327A00D26
:10516000611D231F849F600D211D822F762F6A2FC2
:1051700011249F5750408AF0E1F088234AF0EE0F47
:10518000FF1FBB1F661F771F881F91505040A9F754
:105190009E3F510570F05CCFA6CF5F3FECF3983E89
:1051A000DCF3869577956795B795F795E7959F5FBB
:1051B000C1F7FE2B880F911D9695879597F9089555
:1051C00097FB072E16F4009406D077FD08D035D053
:1051D00007FC05D03EF4909581959F4F08957095FA
:1051E00061957F4F0895A1E21A2EAA1BBB1BFD01FA
:1051F0000DC0AA1FBB1FEE1FFF1FA217B307E407B6
:10520000F50720F0A21BB30BE40BF50B661F771F0D
:10521000881F991F1A9469F76095709580959095ED
:105220009B01AC01BD01CF010895EE0FFF1F881F48
:105230008BBF0790F691E02D1994AA1BBB1B51E17F
:1052400007C0AA1FBB1FA617B70710F0A61BB70BF6
:10525000881F991F5A95A9F780959095BC01CD019B
:1052600008950F931F93CF93DF93869F8001879FAD
:10527000100D969F100D1124C8010DD0EC01009760
:1052800021F0A80160E070E03CD1CE01DF91CF9128
:105290001F910F910895CF93DF938230910510F401
:1052A00082E090E0E0910507F091060720E030E011
:1052B000C0E0D0E0309711F1408151814817590783
:1052C000C0F04817590761F482819381209719F043
:1052D0009B838A832BC0909306078093050726C083
:1052E0002115310519F04217530718F49A01BE0130
:1052F000DF01EF010280F381E02DDCCF21153105C4
:1053000009F1281B390B2430310590F412968D9148
:105310009C9113976115710521F0FB0193838283A2
:1053200004C09093060780930507FD01329644C0A0
:10533000FD01E20FF31F81939193225031092D93C8
:105340003C933AC02091030730910407232B41F48A
:105350002091020230910302309304072093030747
:1053600020910002309101022115310541F42DB741
:105370003EB74091040250910502241B350BE09189
:105380000307F0910407E217F307A0F42E1B3F0B6D
:105390002817390778F0AC014E5F5F4F24173507A7
:1053A00048F04E0F5F1F509304074093030781930B
:1053B000919302C0E0E0F0E0CF01DF91CF9108953A
:1053C0000F931F93CF93DF93009709F48CC0FC01D8
:1053D000329713821282009105071091060701157A
:1053E000110581F420813181820F931F20910307E1
:1053F000309104072817390779F5F0930407E093F3
:10540000030771C0D80140E050E0AE17BF0750F469
:1054100012962D913C911397AD012115310509F19B
:10542000D901F3CF9D01DA01338322836081718139
:10543000860F971F8217930769F4EC012881398141
:10544000260F371F2E5F3F4F318320838A819B8138
:1054500093838283452B29F4F0930607E093050795
:1054600042C01396FC93EE931297ED014991599126
:105470009E01240F351FE217F30771F4808191819B
:10548000840F951F029611969C938E93828193812F
:1054900013969C938E931297E0E0F0E0D801129659
:1054A0008D919C911397009719F0F8018C01F6CF1C
:1054B0008D919C9198012E5F3F4F820F931F2091F9
:1054C0000307309104072817390769F4309729F446
:1054D000109206071092050702C0138212821093E1
:1054E000040700930307DF91CF911F910F91089557
:1054F000FB01DC0102C001900D9241505040D8F7F1
:105500000895DC0101C06D9341505040E0F70895CB
:10551000FB01DC018D91019080190110D9F3990BE9
:065520000895F894FFCF8E
:105526000000070780000100000001000E02620271
:1055360000000000020002001A02FF060000000040
:105546000100D40600000000010094029B02A5029F
:10555600A402AD02AC02B602B502BE02C802D30274
:10556600D902E302EC02040004000100010002007B
:10557600020004000400010004000200020004000E
:1055860008000000803F0000C84201010100CD1163
:10559600CD11CD11CD11CD11CD11CD11CD1101FFF3
:1055A60053696D756C6174696F6E2066696E697397
:1055B600686564007265616C5F54007265616C3386
:1055C600325F540075696E74385F540075696E7485
:1055D60031365F540075696E7433325F5400626F02
:1055E6006F6C65616E5F540066636E5F63616C6CC1
:1055F6005F5400696E745F5400706F696E746572F3
:105606005F5400616374696F6E5F540074696D6501
:10561600725F75696E7433325F706169725F5400D0
:1056260001D806000000004D167219DD15F715E9C0
:10563600152C160000000028192D77002D69676EBD
:105646006F72652D61726700436F756C64206E6FB3
:1056560074206372656174652065787465726E6125
:105666006C206D6F6465207573657220646174616A
:105676002E20204F7574206F66206D656D6F7279D0
:045686002E0A0000E8
:00000001FF
